:1000000012C0189518951895189518951895189563
:100010001895189518951895189518951895189578
:100020001895189518958FE58DBFC0E4E0E14E2E28
:1000300084E08EBFD4E0F4E05F2EA89584B7082E4C
:10004000877F84BF88E1992781BD91BDEEEFF3E002
:10005000A0E6B0E088278D933197E9F795D2662422
:100060008CE0DAD283E886B980E487B9379A8D9834
:100070008E988F988B9A8C9A8D9A93989498E6E99B
:10008000F0E080E4C9D258E0C895802DBFD2319607
:100090005A95D1F704C0040E1F0E0420202060D210
:1000A000E4E5FBE055D203E04ED280E0AFD2E8E5D4
:1000B000FBE04ED202E047D2EAE5FBE049D24ED265
:1000C000EEE5FBE045D203E03ED280E09FD2E8E5DA
:1000D000FBE03ED202E037D2E2E6FBE039D2E0E0DC
:1000E000F0E0A1E7B0E071D32ED060D18E98A7E701
:1000F000B0E09C9197FF04C0869B0EC09F779C93B5
:1001000086990AC089E19F9390E0B2D29F91869927
:1001100003C090689C93F9C08F98A7E7B0E09C91CA
:1001200096FF04C0879B0EC09F7B9C9387990AC053
:1001300089E19F9390E09CD29F91879903C090643E
:100140009C930CC1D1CFAAE6B0E0ECE3FBE0B5D2C2
:1001500081E08093700000917000043610F009F087
:100160003AC007B1007F07B997D2A4E6B0E08D93FB
:100170009C93A4E6B0E00D911C91003050E015076F
:1001800009F411C0E0E4FBE0D0D4E4E6F0E0D19063
:10019000E080FF240027B0D3DCD3EDE0F0E0A6E65A
:1001A000B0E0F4D205C0A6E6B0E0ECE3FBE085D217
:1001B000E6E6F0E03ED3EAE6F0E036D368D4EDE0E0
:1001C000F0E0AAE6B0E0E2D2A0E7B0E08C918F5F69
:1001D0008C9308F4C0CFEAE6F0E026D3ECE3FBE032
:1001E000A4D409D309F40DC0E4E4FBE09ED4EAE60C
:1001F000F0E01AD3AED3EDE0F0E0AAE6B0E0C6D26C
:1002000005C0AAE6B0E0ECE3FBE057D2EAE6F0E096
:100210001BD3AEE6B0E0EE0C000FE794DD92EC925B
:100220008FE714E0ACD103E08ED18FE714E0A7D1C3
:10023000EEE6F0E0A8EFB3E05DD27DD18FEB14E005
:100240009ED103E080D18FEB14E099D1E1E7F0E09B
:10025000A8EFB3E04FD26FD1E8E4FBE066D4E6E666
:10026000F0E0E2D2CFD3EDE0F0E0EED2A0E6B0E0F5
:10027000DC92ECE4FBE059D4E6E6F0E0D5D2C2D360
:10028000EDE0F0E0E1D2A1E6B0E0DC92E0E5FBE0F9
:100290004CD4E6E6F0E0C8D2B5D3EDE0F0E0D4D23D
:1002A000A2E6B0E0DC920091710040916E00041B68
:1002B000A3E6B0E00C938FE811E061D1E6E6FBE045
:1002C00047D101E040D1EAE6FBE042D101E03BD179
:1002D000EEE6FBE03DD18FEC11E051D1E0E6F0E03D
:1002E000A8EFB3E00ED227D101E02DD1E1E6F0E096
:1002F000A8EFB3E006D21FD101E025D1E2E6F0E09D
:10030000A8EFB3E0FED117D10895A1E7B0E005D181
:10031000A1E7B0E00D911C910E3650E0150714F0E6
:1003200009F001C006C080E090E0A1E7B0E08D9345
:100330009C93E0E0F0E0A1E7B0E07BE735D28FEB03
:1003400014E01DD103E0FFD08FEB14E018D1E1E7FA
:10035000F0E0A8EFB3E0CED1EED0C6CEA1E7B0E09A
:100360000D911C91003050E0150709F404C0A1E77D
:10037000B0E0DAD006C08EE690E0A1E7B0E08D9361
:100380009C93E0E0F0E0A1E7B0E07BE70DD28FEBDB
:1003900014E0F5D003E0D7D08FEB14E0F0D0E1E724
:1003A000F0E0A8EFB3E0A6D1C6D09ECEA1E7B0E0C2
:1003B0000D911C910F5F1F4FA3E7B0E00D931C93AD
:1003C000A3E7B0E04D915C91AEE6B0E00D911C91D9
:1003D000041715070CF001C018C0939A94988FE782
:1003E0001EE0CDD003E0AFD08FE71EE0C8D0E2E73B
:1003F000FBE0AED08FEB1EE0C2D003E0A4D08FEBC9
:100400001EE0BDD0E6E7FBE0A3D0A1E7B0E00D9190
:100410001C9101501040A5E7B0E00D931C93A5E797
:10042000B0E04D915C91AEE6B0E00D911C910417E7
:10043000150714F009F018C09398949A8FE71EE0FE
:100440009ED003E080D08FE71EE099D0E6E7FBE086
:100450007FD08FEB1EE093D003E075D08FEB1EE0D2
:100460008ED0E2E7FBE074D0A5E7B0E04D915C915F
:10047000AEE6B0E00D911C910417150780E014F072
:1004800009F081E08F93A3E7B0E04D915C91AEE677
:10049000B0E00D911C910417150780E00CF481E089
:1004A0009F918923882309F418C0939894988FE723
:1004B0001EE065D003E047D08FE71EE060D0E2E7A2
:1004C000FBE046D08FEB1EE05AD003E03CD08FEB30
:1004D0001EE055D0E2E7FBE03BD000916300023024
:1004E00008F008C0959A8FE81BE049D0EAE7FBE0E6
:1004F0002FD007C095988FE81BE041D0E2E8FBE0E1
:1005000027D080E08093600080E08093610080E0ED
:10051000809362000895F894FFCFED91FC91EF5F16
:10052000FF4FFC93EE930895ED91FC91E150F04064
:10053000FC93EE930895A8EFB3E08D91882311F01A
:1005400065D0FBCF089580E261D00A95E1F7089568
:10055000ACD0802D11F05AD0FBCF089580EC5CC058
:1005600081E05AD00ED080E857C08FE7213039F0B3
:100570008FEB223021F08FE8233009F08FEC810FD0
:100580004BC083E0992774C08AEF90E071D0B89A8D
:10059000B99ABA9ABB9ABC9ABD9AC59885E090E080
:1005A00067D0C498C098C198C29AC39AC49AEF936E
:1005B000FF93E5E1F0E050D0FF91EF91C49855D062
:1005C000C49AEF93FF93E5E1F0E046D0FF91EF91FD
:1005D000C4984BD0C49AEF93FF93E5E1F0E03CD090
:1005E000FF91EF91C49841D0C398C49AEF93FF93C1
:1005F000E5E1F0E031D0FF91EF91C49836D088E288
:100600000BD08EE009D086E007D00895C59A829578
:1006100005D004D02AD00895C598F9CF859510F457
:10062000C39A01C0C398859510F4C29A01C0C298BC
:10063000859510F4C19A01C0C198859510F4C09AAF
:1006400001C0C098C49AEF93FF93E5E1F0E004D0B5
:10065000FF91EF91C49808953197F1F70895689448
:1006600062F80895E89462F8089581E090E000C08F
:10067000EF93FF93EE27E82BE92B31F0EAEFF0E060
:100680003197F1F70197D1F7FF91EF91089501911B
:100690001191219130810895369A3699FECF369A7C
:1006A0003699FECF84B195B10895C8953196002052
:1006B000089591E005C092E003C094E001C098E085
:1006C000F4DF0D929A95E1F70895000F111F221F94
:1006D000331F089500951095209530950F5F1F4F9B
:1006E0002F4F3F4F0895019110810DC0D0DF0DC0F5
:1006F000CEDF10C00191108117FF05C03FEF2FEF33
:1007000004C0008111272227332737FF03C0E2DF0F
:100710008DE28D93CF92DF92EF92AA24BB24CC245A
:10072000DD24EE2440E2EAE0FF2755E093E38081F8
:10073000890F87FD9F7083FD907F891B81935A9558
:10074000A9F7C3DFAA1CBB1CCC1CDD1CEE1C4A9500
:1007500051F7E894EFE0FF2782910BD0EB30E0F700
:100760001EF068948A2D09D04D93EF90DF90CF90C2
:100770000895982F829501D0892F8F70805D26F083
:10078000803309F4089568948D93089594E08191DD
:100790008D939A95E1F70895E199FECFEEBBFFBBEB
:1007A0003196089591E001C092E07B3751F47FB714
:1007B000F894F2DF8D918DBBE29AE19A9A95C9F790
:1007C0007FBF7727089591E001C092E0E5DFE09ACE
:1007D0008DB38D939A95D1F70895B7FE089590E85B
:1007E000B91611F4D0FE08959FEFD91AE90AF90A53
:1007F00009F4039508950F928F939F93D216E30601
:10080000F4060FB680E890E8802795270FBE890789
:1008100039F00FB6892B87FD02C081E008260FBE94
:100820009F918F910F900895D190E190F190019157
:10083000089521913191419151910895502F2D2D7D
:100840003E2D4F2D612F0895EFDF992711278F2D12
:10085000880F80E8F82A802F881F08F41FEF41F0E6
:100860008F57082F07FD04C0003240F08FEF01C002
:100870008827982FD82EE82EF82E09C08FE1801BEC
:10088000082FF694E794D79497950A95D1F71123FA
:1008900051F09095D094E094F09481E0980F8827DF
:1008A000D81EE81EF81E0F2DFE2CED2CD92E089513
:1008B000D094E094F09491E0D90E9927E91EF91EA6
:1008C00010950895652F90E8440F551F5927990FEB
:1008D00047956078102F90E8FF0C001F0927990FAB
:1008E000F794107800380895FF0C90E89027110FC6
:1008F0009795F794092F08951127BD2CDE2CEF2C26
:10090000F02E0EE1FF2039F4FE2CED2CDB2CBB2465
:100910000850C2F752C032F00A95BB0CDD1CEE1C29
:10092000FF1CF9CF5ADFE0CF2DEC3CEC4CEC5DE343
:1009300066270FC079DF82DFDD24EE2490E8F92EF0
:100940000FE307C076DF05C02227332740E251E4DA
:100950006627552351F1002381F1B4DF71F1162789
:10096000005850580894050B18F407FD03C025C023
:1009700007FD23C0469537952795F694E794D794BD
:1009800025D0FF202AF0DD0CEE1CFF1C015073F077
:100990009D2D969548F0DD203AF4EE202AF491E062
:1009A000D90E9927E91EF91E9FCF07C09FE7092F8F
:1009B000F92A9FEFD92EE92E0895DD24EE24FF2495
:1009C0000027112708950FE79FEFF2CF9F929924F8
:1009D000AA24BB2488E1D216E306F40628F0D21A32
:1009E000E30AF40A089401C08894991CAA1CBB1C51
:1009F000DD0CEE1CFF1C8A9571F7D92CEA2CFB2C20
:100A00009F9008955FDFD1F05038C1F0162700584D
:100A1000952F90580894091F12F418F40EC008F08E
:100A20000DC00DD0FF202AF0BB0CDD1CEE1CFF1CFE
:100A300002C0039513F0D1DE57CFB8CFBECF9F923F
:100A4000FF92EF928D2DFF24EE24DD24BB2493E052
:100A5000849F1001829FB00CD11CE21CF31C839F69
:100A6000D00CE11C2224F21C9A9531F0BD2CDE2C16
:100A7000EF2CFF248F91ECCF9F9008950AF045D082
:100A800033CF5FE322273327442701C0D2DE1ADFAA
:100A90005038B1F3003899F3902F951B8BF312F473
:100AA00034D0FACF983118F02227332744279830D2
:100AB00028F0232F342F44279850F9CF992329F079
:100AC0004695379527959A95D9F7912F962742F015
:100AD00014D0B0F6F794E794D7940F5F8BF666CFF7
:100AE00010D051F008F4E4DEFF2052F2DD0CEE1CD1
:100AF000FF1C0150CBF75ACF60CFD20EE31EF41E7D
:100B00000895D21AE30AF40A0895DF92EF92FF9251
:100B10000F931F93D22EE32EF42E052F162F6F91D5
:100B20005F914F913F912F910895BFDD202DBDDD45
:100B3000302DBBDD402DB9DD502D089500000000A3
:100B4000000000400000C8429A99593F1F852B3F82
:100B50009A99193E50543D00430048543D00535467
:100B60003D00464E3D004B5000004B4900004B44B9
:100B700000004F4646004F4E00004D543D4F4E2062
:0A0B800000004D543D4F46460000B2
:00000001FF
